{
  "address": "0x14f5aa2c2d738fBc4945671E88F7e1d8eded7088",
  "abi": [
    {
      "inputs": [
        {
          "internalType": "contract ICallExecutor",
          "name": "callExecutor",
          "type": "address"
        }
      ],
      "stateMutability": "nonpayable",
      "type": "constructor"
    },
    {
      "inputs": [],
      "name": "BitUsed",
      "type": "error"
    },
    {
      "inputs": [],
      "name": "Expired",
      "type": "error"
    },
    {
      "inputs": [],
      "name": "InvalidBit",
      "type": "error"
    },
    {
      "inputs": [
        {
          "internalType": "uint256",
          "name": "amountReceived",
          "type": "uint256"
        }
      ],
      "name": "NotEnoughReceived",
      "type": "error"
    },
    {
      "anonymous": false,
      "inputs": [],
      "name": "InvalidData",
      "type": "event"
    },
    {
      "stateMutability": "nonpayable",
      "type": "fallback"
    },
    {
      "inputs": [],
      "name": "ONE_HUNDRED_PERCENT",
      "outputs": [
        {
          "internalType": "uint256",
          "name": "",
          "type": "uint256"
        }
      ],
      "stateMutability": "view",
      "type": "function"
    },
    {
      "inputs": [
        {
          "internalType": "address",
          "name": "_token",
          "type": "address"
        },
        {
          "internalType": "uint256",
          "name": "_price",
          "type": "uint256"
        }
      ],
      "name": "setPriceOf",
      "outputs": [],
      "stateMutability": "nonpayable",
      "type": "function"
    },
    {
      "inputs": [
        {
          "internalType": "address",
          "name": "",
          "type": "address"
        }
      ],
      "name": "testPrices",
      "outputs": [
        {
          "internalType": "uint256",
          "name": "",
          "type": "uint256"
        }
      ],
      "stateMutability": "view",
      "type": "function"
    },
    {
      "inputs": [
        {
          "internalType": "uint256",
          "name": "bitmapIndex",
          "type": "uint256"
        },
        {
          "internalType": "uint256",
          "name": "bit",
          "type": "uint256"
        },
        {
          "internalType": "contract IERC20",
          "name": "tokenIn",
          "type": "address"
        },
        {
          "internalType": "contract IERC20",
          "name": "tokenOut",
          "type": "address"
        },
        {
          "internalType": "uint256",
          "name": "tokenInAmount",
          "type": "uint256"
        },
        {
          "internalType": "uint256",
          "name": "tokenOutAmount",
          "type": "uint256"
        },
        {
          "internalType": "uint256",
          "name": "expiryBlock",
          "type": "uint256"
        },
        {
          "internalType": "address",
          "name": "recipient",
          "type": "address"
        },
        {
          "internalType": "address",
          "name": "to",
          "type": "address"
        },
        {
          "internalType": "bytes",
          "name": "data",
          "type": "bytes"
        }
      ],
      "name": "tokenToToken",
      "outputs": [],
      "stateMutability": "nonpayable",
      "type": "function"
    }
  ],
  "transactionHash": "0xb619a726ffa975f8e3f5401b0bd5348540f9911ff1ca3dc2c1e3351338212377",
  "args": [
    "0xDE61dfE5fbF3F4Df70B16D0618f69B96A2754bf8"
  ],
  "numDeployments": 3,
  "solcInputHash": "765bb861775974978187c766fba6dc37",
  "bytecode": "0x60a060405234801561001057600080fd5b50604051610d74380380610d74833981810160405281019061003291906100e1565b8073ffffffffffffffffffffffffffffffffffffffff1660808173ffffffffffffffffffffffffffffffffffffffff16815250505061010e565b600080fd5b600073ffffffffffffffffffffffffffffffffffffffff82169050919050565b600061009c82610071565b9050919050565b60006100ae82610091565b9050919050565b6100be816100a3565b81146100c957600080fd5b50565b6000815190506100db816100b5565b92915050565b6000602082840312156100f7576100f661006c565b5b6000610105848285016100cc565b91505092915050565b608051610c4b61012960003960006102e70152610c4b6000f3fe608060405234801561001057600080fd5b50600436106100505760003560e01c80630f6322c41461007f5780631536cc731461009b578063dd0081c7146100b7578063ec062b75146100d557610051565b5b7f5cb045dbe1e6a83a0b3b08b74d52e9d7458a678ccdbe4247774b0abb20db402f60405160405180910390a1005b610099600480360381019061009491906106b3565b610105565b005b6100b560048036038101906100b09190610796565b61014c565b005b6100bf610452565b6040516100cc91906108a5565b60405180910390f35b6100ef60048036038101906100ea91906108c0565b610457565b6040516100fc91906108a5565b60405180910390f35b806000808473ffffffffffffffffffffffffffffffffffffffff1673ffffffffffffffffffffffffffffffffffffffff168152602001908152602001600020819055505050565b6101588989898961046f565b610197576040517f08c379a000000000000000000000000000000000000000000000000000000000815260040161018e9061094a565b60405180910390fd5b4385116101d0576040517f203d82d800000000000000000000000000000000000000000000000000000000815260040160405180910390fd5b6101da8b8b6104bb565b60006101e4610561565b905060008973ffffffffffffffffffffffffffffffffffffffff166370a08231836040518263ffffffff1660e01b81526004016102219190610979565b602060405180830381865afa15801561023e573d6000803e3d6000fd5b505050506040513d601f19601f8201168201806040525081019061026291906109a9565b90508a73ffffffffffffffffffffffffffffffffffffffff166323b872dd83888c6040518463ffffffff1660e01b81526004016102a1939291906109d6565b6020604051808303816000875af11580156102c0573d6000803e3d6000fd5b505050506040513d601f19601f820116820180604052508101906102e49190610a45565b507f000000000000000000000000000000000000000000000000000000000000000073ffffffffffffffffffffffffffffffffffffffff16632a31f6b48686866040518463ffffffff1660e01b815260040161034293929190610ad0565b600060405180830381600087803b15801561035c57600080fd5b505af1158015610370573d6000803e3d6000fd5b505050506000818b73ffffffffffffffffffffffffffffffffffffffff166370a08231856040518263ffffffff1660e01b81526004016103b09190610979565b602060405180830381865afa1580156103cd573d6000803e3d6000fd5b505050506040513d601f19601f820116820180604052508101906103f191906109a9565b6103fb9190610b31565b90508881101561044257806040517f8e3b9edc00000000000000000000000000000000000000000000000000000000815260040161043991906108a5565b60405180910390fd5b5050505050505050505050505050565b606481565b60006020528060005260406000206000915090505481565b60008061047b86610576565b846104869190610b65565b816104919190610bbf565b905060008361049f87610576565b6104a99190610b65565b90508082101592505050949350505050565b6104c4816105be565b6104fa576040517f8e8721ac00000000000000000000000000000000000000000000000000000000815260040160405180910390fd5b6000610505836105d2565b905060006105128261060a565b9050600083821614610550576040517f8c2e095100000000000000000000000000000000000000000000000000000000815260040160405180910390fd5b600083821790508083555050505050565b6000601460286000303c60005160601c905090565b60008060008373ffffffffffffffffffffffffffffffffffffffff1673ffffffffffffffffffffffffffffffffffffffff168152602001908152602001600020549050919050565b600060018203821615821515169050919050565b6000817f6c0dc1c455ee100500be45eb5af9d4c93f609d5877e81b7c1f2a01280732dbeb6106009190610bbf565b60001b9050919050565b600081549050919050565b600080fd5b600080fd5b600073ffffffffffffffffffffffffffffffffffffffff82169050919050565b600061064a8261061f565b9050919050565b61065a8161063f565b811461066557600080fd5b50565b60008135905061067781610651565b92915050565b6000819050919050565b6106908161067d565b811461069b57600080fd5b50565b6000813590506106ad81610687565b92915050565b600080604083850312156106ca576106c9610615565b5b60006106d885828601610668565b92505060206106e98582860161069e565b9150509250929050565b60006106fe8261063f565b9050919050565b61070e816106f3565b811461071957600080fd5b50565b60008135905061072b81610705565b92915050565b600080fd5b600080fd5b600080fd5b60008083601f84011261075657610755610731565b5b8235905067ffffffffffffffff81111561077357610772610736565b5b60208301915083600182028301111561078f5761078e61073b565b5b9250929050565b60008060008060008060008060008060006101408c8e0312156107bc576107bb610615565b5b60006107ca8e828f0161069e565b9b505060206107db8e828f0161069e565b9a505060406107ec8e828f0161071c565b99505060606107fd8e828f0161071c565b985050608061080e8e828f0161069e565b97505060a061081f8e828f0161069e565b96505060c06108308e828f0161069e565b95505060e06108418e828f01610668565b9450506101006108538e828f01610668565b9350506101208c013567ffffffffffffffff8111156108755761087461061a565b5b6108818e828f01610740565b92509250509295989b509295989b9093969950565b61089f8161067d565b82525050565b60006020820190506108ba6000830184610896565b92915050565b6000602082840312156108d6576108d5610615565b5b60006108e484828501610668565b91505092915050565b600082825260208201905092915050565b7f507269636520746f6f2068696768000000000000000000000000000000000000600082015250565b6000610934600e836108ed565b915061093f826108fe565b602082019050919050565b6000602082019050818103600083015261096381610927565b9050919050565b6109738161063f565b82525050565b600060208201905061098e600083018461096a565b92915050565b6000815190506109a381610687565b92915050565b6000602082840312156109bf576109be610615565b5b60006109cd84828501610994565b91505092915050565b60006060820190506109eb600083018661096a565b6109f8602083018561096a565b610a056040830184610896565b949350505050565b60008115159050919050565b610a2281610a0d565b8114610a2d57600080fd5b50565b600081519050610a3f81610a19565b92915050565b600060208284031215610a5b57610a5a610615565b5b6000610a6984828501610a30565b91505092915050565b600082825260208201905092915050565b82818337600083830152505050565b6000601f19601f8301169050919050565b6000610aaf8385610a72565b9350610abc838584610a83565b610ac583610a92565b840190509392505050565b6000604082019050610ae5600083018661096a565b8181036020830152610af8818486610aa3565b9050949350505050565b7f4e487b7100000000000000000000000000000000000000000000000000000000600052601160045260246000fd5b6000610b3c8261067d565b9150610b478361067d565b925082821015610b5a57610b59610b02565b5b828203905092915050565b6000610b708261067d565b9150610b7b8361067d565b9250817fffffffffffffffffffffffffffffffffffffffffffffffffffffffffffffffff0483118215151615610bb457610bb3610b02565b5b828202905092915050565b6000610bca8261067d565b9150610bd58361067d565b9250827fffffffffffffffffffffffffffffffffffffffffffffffffffffffffffffffff03821115610c0a57610c09610b02565b5b82820190509291505056fea26469706673582212203155c273bbe990074245c7da353098d6f0f61432fea003ac01cffebaef9dccaf64736f6c634300080e0033",
  "devdoc": {
    "errors": {
      "BitUsed()": [
        {
          "details": "Revert when bit provided is used"
        }
      ],
      "Expired()": [
        {
          "details": "Revert when limit swap is expired"
        }
      ],
      "InvalidBit()": [
        {
          "details": "Revert when bit provided is not valid"
        }
      ],
      "NotEnoughReceived(uint256)": [
        {
          "details": "Revert when swap has not received enough of the output asset to be fulfilled"
        }
      ]
    },
    "kind": "dev",
    "methods": {
      "tokenToToken(uint256,uint256,address,address,uint256,uint256,uint256,address,address,bytes)": {
        "details": "Executes an ERC20 to ERC20 limit swap",
        "params": {
          "bit": "The value of the replay bit [signed]",
          "bitmapIndex": "The index of the replay bit's bytes32 slot [signed]",
          "data": "Data to execute on the `to` contract to fulfill the swap [unsigned]",
          "expiryBlock": "The block when the swap expires [signed]",
          "to": "Address of the contract that will fulfill the swap [unsigned]",
          "tokenIn": "The input token provided for the swap [signed]",
          "tokenInAmount": "Amount of tokenIn provided [signed]",
          "tokenOut": "The output token required to be received from the swap [signed]",
          "tokenOutAmount": "Amount of tokenOut required to be received [signed]"
        }
      }
    },
    "title": "Verifier for ERC20 limit swaps",
    "version": 1
  },
  "userdoc": {
    "kind": "user",
    "methods": {
      "tokenToToken(uint256,uint256,address,address,uint256,uint256,uint256,address,address,bytes)": {
        "notice": "This should be executed by metaDelegateCall() or metaDelegateCall_EIP1271() with the following signed and unsigned params"
      }
    },
    "notice": "These functions should be executed by metaPartialSignedDelegateCall() on Brink account proxy contracts",
    "version": 1
  },
  "storageLayout": {
    "storage": [
      {
        "astId": 751,
        "contract": "contracts/Verifier.sol:StopLimitSwapVerifier",
        "label": "testPrices",
        "offset": 0,
        "slot": "0",
        "type": "t_mapping(t_address,t_uint256)"
      }
    ],
    "types": {
      "t_address": {
        "encoding": "inplace",
        "label": "address",
        "numberOfBytes": "20"
      },
      "t_mapping(t_address,t_uint256)": {
        "encoding": "mapping",
        "key": "t_address",
        "label": "mapping(address => uint256)",
        "numberOfBytes": "32",
        "value": "t_uint256"
      },
      "t_uint256": {
        "encoding": "inplace",
        "label": "uint256",
        "numberOfBytes": "32"
      }
    }
  }
}